:020000040800F2
:10000000D0590020E902000867200008911E00086E
:10001000652000081F060008C9270008000000002E
:10002000000000000000000000000000290200089D
:10003000DD0600080000000085020008812300089A
:100040000303000803030008030300080303000878
:100050000303000803030008030300080303000868
:100060000303000803030008030300082106000837
:100070000303000803030008030300080303000848
:100080002D0600080303000803030008030300080B
:100090000303000803030008030300080303000828
:1000A00003030008412400080303000803030008B9
:1000B0000303000803030008030300080303000808
:1000C00003030008030300080303000803030008F8
:1000D00003030008BD27000803030008030300080A
:1000E00003030008030300080303000803030008D8
:1000F00003030008030300080303000803030008C8
:1001000003030008030300080303000803030008B7
:1001100003030008030300080303000803030008A7
:100120000303000803030008030300080303000897
:100130000303000803030008030300080303000887
:100140000303000803030008030300080303000877
:100150000303000803030008030300080303000867
:100160000303000803030008030300080303000857
:100170000303000803030008030300080000000055
:10018000030300080303000800F002F800F03CF845
:100190000AA090E8000C82448344AAF10107DA45E2
:1001A00001D100F031F8AFF2090EBAE80F0013F0F8
:1001B000010F18BFFB1A43F0010318476C40000001
:1001C0008C400000103A24BF78C878C1FAD8520792
:1001D00024BF30C830C144BF04680C6070470000C1
:1001E0000023002400250026103A28BF78C1FBD840
:1001F000520728BF30C148BF0B6070471FB503F0DE
:10020000CDFF1FBD10B510BD00F0D0F91146FFF7AE
:10021000F5FF02F0CBFB00F0EEF903B4FFF7F2FFBD
:1002200003BC00F0F5F900002C4B19680868B0E831
:10023000F04F80F30988BFF36F8F4FF0000080F319
:10024000118870470000000008480068006880F3CB
:1002500008884FF0000080F3148862B661B6BFF3DF
:100260004F8FBFF36F8F00DF00BF00BF08ED00E0CE
:10027000DFF80C00016841F470010160704700BFB5
:1002800088ED00E0EFF30980BFF36F8F134B1A681E
:100290001EF0100F08BF20ED108A20E9F04F10600B
:1002A00009B44FF0500080F31188BFF34F8FBFF3B4
:1002B0006F8F03F045FA4FF0000080F3118809BCFE
:1002C00019680868B0E8F04F1EF0100F08BFB0ECD6
:1002D000108A80F30988BFF36F8F704718000020E1
:1002E000EFF3058070470000094880470948004740
:1002F000FEE7FEE7FEE7FEE7FEE7FEE7FEE7FEE7D6
:10030000FEE7FEE704480549054A064B7047000032
:100310003124000889010008D0530020D059002062
:10032000D0550020D055002053EA020C00F069801F
:100330002DE9F04B4FF00006002B1FBFB3FA83F5F9
:1003400003FA05F424FA05F65E4012BF1643B2FA2A
:1003500082F502FA05F4C5F120051EBF22FA05FC5C
:1003600044EA0C04203556EA044C4FEA144418BF02
:10037000641C4FF000084FF00009904271EB030C31
:1003800039D3002919BFB1FA81F701FA07F6B0FA9B
:1003900080F700FA07F6C7F120071EBF20FA07FC16
:1003A00046EA0C062037B6FBF4FCA7EB0507103F26
:1003B00007F01F0BCBF120060CFA0BFB2CFA06F60C
:1003C00044BFB3460026202FA4BF5E464FF0000B6B
:1003D0005BEA060C08BF4FF0010B19EB0B09ABFBF6
:1003E000027C48EB0608C01B06FB02CC0BFB03CCCF
:1003F00071EB0C01C1E70B46024641464846BDE899
:10040000F08B13B54FF000004FF00001AFF3008008
:10041000BDE81C407047032A40F2308010F0030C06
:1004200000F0158011F8013BBCF1020F624498BF47
:1004300011F801CB00F8013B38BF11F8013BA2F1E4
:10044000040298BF00F801CB38BF00F8013B11F05F
:10045000030300F05780083AC0F0088051F8043BCD
:10046000083A51F804CBA0E80810F5E7121D5CBF6C
:1004700051F8043B40F8043BAFF30080D20724BF9F
:1004800011F8013B11F801CB48BF11F8012B24BF33
:1004900000F8013B00F801CB48BF00F8012B704782
:1004A00002F0FF0343EA032242EA024200F05EB890
:1004B0004FF0000200B5134694469646203922BFFD
:1004C000A0E80C50A0E80C50B1F12001BFF4F7AF48
:1004D000090728BFA0E80C5048BF0CC05DF804EB2A
:1004E000890028BF40F8042B08BF704748BF20F898
:1004F000022B11F0804F18BF00F8012B7047704796
:100500007047704710B5203AC0F00B80B1E8185022
:10051000203AA0E81850B1E81850A0E81850BFF4ED
:10052000F5AF5FEA027C24BFB1E81850A0E818508C
:1005300044BF18C918C0BDE810405FEA827C24BFE0
:1005400051F8043B40F8043B08BF7047D20728BF6E
:1005500031F8023B48BF11F8012B28BF20F8023BBD
:1005600048BF00F8012B70474FF000020429C0F08B
:10057000128010F0030C3FF49DAFCCF1040CBCF1E1
:10058000020F18BF00F8012BA8BF20F8022BA1EB27
:100590000C01FFF78FBF5FEAC17C24BF00F8012B7D
:1005A00000F8012B48BF00F8012B7047754600F09A
:1005B0002BF8AE4605006946534620F007008546F5
:1005C00018B020B5FFF79EFEBDE820404FF00006B2
:1005D0004FF000074FF000084FF0000B21F007012B
:1005E000AC46ACE8C009ACE8C009ACE8C009ACE86E
:1005F000C0098D46704710B50446AFF30080204611
:10060000BDE81040FFF709BE004870477053002056
:1006100001491820ABBEFEE7260002007047FEE746
:10062000014800F0E5B80000AC090020014800F0E6
:10063000DFB800004C09002001681823CAB2103A44
:10064000B2FBF3F2054B6FF30901032A9B5CC36510
:1006500000D9091D8165084670470000F041000877
:1006600010B5014600208B698A6A4FF0C07453B1FF
:10067000B3F5005F15D072B1012A0CD0022A0AD05E
:10068000032A09D104E01AB1012A06D0022A03D1B3
:10069000C96AC90100D5012010BDC96AA142FAD0BA
:1006A00010BD002AF7D0012AF2D0022AF3D0032A83
:1006B000F3D010BD30B50468256825F48025256089
:1006C000046863608368402B036803D09960006806
:1006D000C26030BD9A600068C16030BD704772B6BC
:1006E000FEE7000086B0002002F0DAF814220BA129
:1006F000002002F06BF84FF0FF344FF4FA7514222B
:100700006946002002F09AF82346142269460948F7
:1007100001F06DFB284602F05CF9F0E748656C6C6F
:100720006F2C2057333271373620466C6173682145
:10073000000000000C0A00202DE9F0410446876DFE
:1007400000F0CEFA064694F835000025022806D0BF
:100750008020606584F834500120BDE8F081206875
:10076000016821F0160101602068416921F08001D3
:100770004161206C08B9A06C20B12068016821F0AB
:10078000080101602068016821F0010101600CE0AE
:1007900000F0A6FA801B052807D9202060650320F9
:1007A00084F8350084F83450D7E720680068C00723
:1007B000EED194F85C103F208840B860012084F8A6
:1007C000350084F834500020C7E790F8351002292E
:1007D00003D08021416501207047052180F8351044
:1007E0000068016821F001010160002070470000ED
:1007F0002DE9F84304464FF00009CDF80090634816
:100800004FF41651A56D0068B0FBF1F72E6894F80F
:100810005C10082000FA01F131420FD021680A680B
:1008200052070BD50A6822F004020A6094F85C10A3
:100830008840A860606D40F00100606594F85C102D
:100840004FF0010808FA01F0304208D021684969E8
:10085000090604D5A860606D40F00200606594F858
:100860005C1004208840304208D02168096889075C
:1008700004D5A860606D40F00400606594F85C10D9
:1008800010208840304218D021680968090714D523
:10089000A86020680168490304D50068000308D5F2
:1008A000A16C07E00168C90503D4016821F00801C3
:1008B0000160216C09B12046884794F85C10202023
:1008C0008840304231D021680968C9062DD5A8601A
:1008D00094F8350005282068016806D0490347D5FB
:1008E000006800031DD4616C1CE021F0160101605A
:1008F0002068416921F080014161206C08B9A06C39
:1009000020B12068016821F00801016094F85C10B2
:100910003F208840A86084F8358084F83490216DA9
:100920001FE0E16B09B120468847606D00282BD09D
:10093000606DC00714D0052084F835002068016878
:1009400021F0010101600098401C0090B84203D8DA
:1009500020680068C007F6D184F8358084F83490A8
:10096000E16C002910D001B02046BDE8F0430847F3
:100970000168C905D5D4016821F01001016084F82F
:10098000358084F83490CCE7BDE8F883140000206B
:100990002DE9F041044600F0A3F906465CB10220BF
:1009A00084F83500002584F834502068016821F06F
:1009B000010101600DE00120BDE8F08100F090F937
:1009C000801B052805D920206065032084F83500A8
:1009D000F2E720680068C007F0D12268116820485B
:1009E0000140D4E901031843D4E9033633431843E3
:1009F00063691843A3691843E3691843236A1843DA
:100A00000843616A042903D1D4E90B13194308434D
:100A1000106020684069666A20F0070130460E4386
:100A2000012704280CD1A06A0643E06A40B12046A1
:100A3000FFF716FE20B14020606584F83570BAE7F4
:100A4000206846612046FFF7F7FD94F85C203F21BF
:100A500091408160656584F835700020ACE7000046
:100A60003F8010F02DE9F0410446866D90F8340087
:100A7000002501280DD0012084F8340094F8357049
:100A80000020012F07D084F8340002252846BDE855
:100A9000F0810220FBE7022784F83570606520466C
:100AA000FFF708FE94F85C103F208840B060206893
:100AB000016841F016010160206C20B120680168D6
:100AC00041F0080101602068016841F00101016006
:100AD000DCE700002DE9F84FDFF8BCA1002201257A
:100AE00003264FF00F090AF1040BAAF1040E00BF10
:100AF0000B6805FA02F42340A34270D10F7907F086
:100B00000307012F01D0022F16D187684FEA420850
:100B100006FA08FC27EA0C07D1F80CC00CFA08FC0E
:100B20004CEA070CC0F808C04768A7430C79C4F327
:100B3000001494403C4344600C79E443A4070AD079
:100B4000C4684FEA420C06FA0CF7BC438F6807FAF8
:100B50000CF72743C7600C7904F00304022C12D170
:100B6000D40800EB840CDCF820405707FF0E09FA8C
:100B700007F824EA0804D1F8108008FA07F848EAD0
:100B80000408CCF8208004684FEA420C06FA0CF7FF
:100B9000BC430F7907F0030707FA0CF727430760F8
:100BA0004C6814F4403F70D03C4C276847F48047B1
:100BB0002760246822F0030704F480440094384C32
:100BC00007EB040CDCF8084897074FEA177809FA96
:100BD00008F7BC43334FB84202D1002724E054E069
:100BE000314FB84201D101271EE0304FB84201D148
:100BF000022719E02E4FB84201D1032714E02D4FF0
:100C0000B84201D104270FE02B4FB84201D105278C
:100C10000AE02A4FB84201D1062705E0284FB84222
:100C200001D1072700E0082707FA08F72743CCF887
:100C30000878DAF800405746D1F804C09C435FEAD0
:100C4000CC2C00D51C433C60DBF800405F46D1F85B
:100C500004C09C435FEA8C2C00D51C433C60DEF84A
:100C600000407746D1F804C09C435FEA8C3C00D535
:100C70001C433C60084F083F3C68D1F804C09C43CB
:100C80005FEACC3C00D51C433C60521C102AFFF4A8
:100C90002FAFBDE8F88F0000083C01404438024007
:100CA0000030014000000240000402400008024001
:100CB000000C0240001002400014024000180240E4
:100CC000001C0240426921EA02030A4043EA024151
:100CD000816170470AB1816170470904FBE7000038
:100CE00001488068704700000800002002488168C1
:100CF0000278114481607047080000200B4810B54D
:100D0000016841F400710160016841F48061016093
:100D1000016841F480710160032000F099F80F2010
:100D200000F006F800F04AF8002010BD003C024038
:100D300030B505461C4887B00024016841F0010128
:100D40000160006806A900F00100009001A800F011
:100D50002BF900F059F915494000B0FBF1F11548A5
:100D6000134A491E026040F2E732C0E90324C0E999
:100D70000114846100F072FD040012D10D4800F0EE
:100D80009BFD04000DD1192000F034F8102D07D27E
:100D900000222946192000F03BF80748056000E0D2
:100DA000012407B0204630BD4438024040420F00C5
:100DB00000000140540A00200C0000200C4882B0C2
:100DC000016841F480410160006800F480400090B7
:100DD0000748001F016841F080510160006800224F
:100DE00000F0805000900F21901E02B000F010B86B
:100DF00044380240002809DB00F01F020121914025
:100E00004009800000F1E020C0F8001170470000A8
:100E1000F0B40E4B1B680C46C3F30223C3F1070565
:100E2000042D00D90425191D072901D2002300E053
:100E3000DB1E012606FA05F1491E214099409E401D
:100E4000761E16403143F0BC01F0A0BD0CED00E071
:100E5000064900F0070208684FF6FF03184040EA11
:100E60000220034A10430860704700000CED00E0C8
:100E70000000FA052DE9F0470E46050065D0DFF8C1
:100E80001481D8F80000F7B200F00700B04207D292
:100E900088F80070D8F8000000F00700B04254D184
:100EA00028683D4C810712D5400703D5206840F4DF
:100EB000E05020602878000703D5206840F46040A7
:100EC00020602068A96820F0F0000843206028789E
:100ED000C0072DD0304968680839012812D002288F
:100EE00013D0032811D00968890700292DDA216859
:100EF00021F0030101432160FFF7F2FE814641F238
:100F0000883A0EE009688903EFE709688901ECE790
:100F1000FFF7E6FEA0EB0901514502D90320BDE829
:100F2000F0872068696800F00C00B0EB810FEFD10A
:100F3000D8F80010404601F00701B14207D9077008
:100F4000006800F00700B04201D00120E7E72878F0
:100F5000400705D52068E96820F4E0500843206088
:100F60002878000706D52068296920F4604040EA07
:100F7000C100206000F058F82168084AC1F303114D
:100F8000515CC8400649086006480068FFF7D0FE7B
:100F90000020C4E7003C024008380240F841000845
:100FA000140000200C0000200F2202600C4A13687D
:100FB00003F003034360136803F0F00383601368D6
:100FC00003F4E053C36012684FF4E05303EAD20223
:100FD00002610448006800F00700086070470000E4
:100FE00008380240003C024004480549006809688E
:100FF000044AC1F38221515CC840704714000020AC
:101000000838024008420008044805490068096899
:10101000044AC1F34231515CC840704714000020BB
:101020000838024008420008154810B5006810F062
:101030000C02144813D01449042A0FD0082A0ED1E8
:101040000F4C241F2268236802F03F025B0207D581
:101050002068C0F38810A0FB010106E0084610BD1F
:101060002168C1F38811A1FB00010023FFF75CF99F
:101070002168C1F30141491C4900B0FBF1F010BDEA
:10108000083802400024F40040787D012DE9F84F33
:1010900004006ED02078DFF84C93C007A9F1040556
:1010A0004AD009F104000168C1F38101012908D087
:1010B0000068C0F3810002280AD1D9F8000040027C
:1010C00006D52868800337D560680028E1D033E072
:1010D0006068B0F5803F10D0B0F5A02F286810D020
:1010E00020F480302860286820F480202860606820
:1010F000A8B1FFF7F5FD06460DE0286840F4803002
:10110000F4E740F480202860F7E700BFFFF7E8FD30
:10111000801B642873D828688003F7D50CE0FFF79C
:10112000DFFD064605E000BFFFF7DAFD801B6428FF
:10113000F0D828688003F7D42078DFF8AC828007E5
:101140004FF0000A3ED5A748001D016811F00C0FB2
:1011500008D00068C0F3810002280BD1D9F8000044
:10116000400207D42868800716D5E068012800D11E
:1011700012E033E1E068B8B10120C8F80000FFF7E1
:10118000AFFD064605E000BFFFF7AAFD801B022861
:10119000C0D828688007F7D52868216920F0F800B2
:1011A00040EAC10028600DE0C8F800A0FFF798FDF4
:1011B000064604E0FFF794FD801B02281FD828682C
:1011C0008007F7D42078000722D5864F87486169C9
:1011D000703771B101210160FFF782FD064604E01E
:1011E000FFF77EFD801B022809D838688007F7D5F5
:1011F0000EE0C0F800A0FFF773FD064605E082E0B0
:10120000FFF76EFD801B02287DD838688007F7D471
:101210002078400768D5DFF8CCB100270BF13C0BF4
:10122000DBF80000C0000BD4DBF8001041F0805167
:10123000CBF80010DBF80000012700F08050009090
:101240006B4E3068C00510D4306840F48070306058
:10125000FFF746FD009005E0FFF742FD0099401AB8
:10126000022850D83068C005F6D55E4EA0686C36AE
:1012700001280FD00528306810D020F00100306020
:10128000306820F004003060A068B8B1FFF728FD96
:1012900000900FE0306840F00100F4E740F00400F7
:1012A0003060F7E7FFF71CFD0099411A41F28830E2
:1012B000814266D830688007F4D50EE0FFF710FD54
:1012C000009007E0FFF70CFD0099411A41F28830C9
:1012D000814256D830688007F4D42FB1DBF8001073
:1012E00021F08051CBF80010A069C8B33D49091D19
:1012F0000968C1F3810102294AD00228504607D06B
:10130000C8F8600000E03CE0FFF7EAFC04463BE080
:101310004746C8F86000FFF7E3FC064605E000BF5B
:10132000FFF7DEFC801B02282BD828688001F7D449
:10133000D4E907010843A16A2E4A490802EB01419A
:10134000626A41EA8211084394F82C1040EA016174
:10135000C9F8001001203866FFF7C2FC044606E019
:101360003EE000BFFFF7BCFC001B022809D828683C
:101370008001F7D534E000BFFFF7B2FC001B022864
:1013800002D90320BDE8F88F28688001F4D427E053
:101390000128F7D0D9F80000E26900F480019142F9
:1013A0001CD1226A00F03F01914217D147F6C0716B
:1013B000626A0140B1EB821F10D1A26A4FF0FF3385
:1013C00000F4403103EB5202B1EB024F06D194F826
:1013D0002C1000F07060B0EB016F01D00120D1E75C
:1013E0000020CFE70438024000004742800E474209
:1013F000007000400000FFFF704770B5040009D086
:10140000606A002540B125616561A56294F85100CC
:1014100040B10CE0012070BD6068B0F5827FF4D06F
:10142000E561F2E784F85050204600F045F80220CC
:1014300084F851002068016821F040010160A08813
:10144000218900F4827001F404410843A18901F468
:1014500000610843217C01F002010843217D01F075
:1014600001010843218B01F400710843217F01F041
:101470003801084394F8201001F080010843218DC1
:1014800001F40051084321680860A069042101EAC1
:10149000104094F8241001F01001084321684860BE
:1014A0002068C16921F40061C1616565012084F88B
:1014B0005100002070BD00002DE9F04186B00646C5
:1014C00014216846FEF7F4FF2A49306888424DD15E
:1014D00029480024016841F400410160006800F4DB
:1014E0000040059024481038016841F00201016075
:1014F0000068694600F00200059038200090022044
:10150000CDE9010403200390062004901B48FFF757
:10151000E1FA1C4D1A484FF40038E5E80204402077
:10152000070191C5174845F81449AC61C5E907485A
:101530006C62FFF72DFA08B1FFF7D1F8B564AE631E
:10154000104D0F4860357838C5E90004AC60C5E936
:1015500003476C61AC61C5E9074828466C62FFF738
:1015600017FA08B1FFF7BBF8F564AE6306B0BDE843
:10157000F0810000003C004040380240000402407E
:10158000886002404C09002070B5044690F8510074
:1015900001282AD121B11AB1A068042310B105E0B5
:1015A000012070BD6568B5F5827F15D094F8505064
:1015B000012D1AD0012584F8505084F851300025AF
:1015C0006565A163A287E28725646564A586E586D3
:1015D000B0F5004F0BD014E084F851302046BDE840
:1015E000704013460A4600F045B8022070BD2068DE
:1015F000016821F0400101602068016821F4804108
:101600000160E16C17480864E16C1748C863E16C3D
:101610001648C864E06C0565E38F2168A26B0C3145
:10162000E06CFFF71FFA30B1606D40F010006065AC
:1016300084F85050B4E720680168490603D4016873
:1016400041F04001016084F850502068416841F049
:10165000200141602068416841F0010141600020A3
:1016600070BD00008B200008A92000086920000838
:101670007047704770B5044690F8510065680128BE
:1016800006D0B5F5827F3AD1A568A5BB042836D12E
:1016900091B38AB383B394F8500001282FD001206E
:1016A00084F8500094F85100042802D0052084F8F2
:1016B0005100002565652163A386E386A263A387A5
:1016C000E3872564656494F85100042819D0E16C1F
:1016D000274808642748E16CC863E16C2648C86461
:1016E000E06C0565E38F2168A26B0C31E06CFFF7BD
:1016F000B9F900BB0AE002E0FFE7012070BD02205B
:1017000070BDE16C1D4808641D48E4E7206841682D
:1017100041F001014160A06C0564A06CC563A06C40
:10172000C564A06C0565E38E2268216B0C32A06C49
:10173000FFF798F930B1606D40F01000606584F8F3
:101740005050DAE720680168490603D4016841F087
:101750004001016084F850502068416841F0200148
:1017600041602068416841F002014160002070BD85
:101770009F20000877210008692000088B200008BE
:10178000A920000870B5044690F8510001281CD12A
:10179000C9B1C2B194F85000012816D0012084F8D4
:1017A0005000032084F85100002565652163A2865E
:1017B000E286A56365642564A587E587A068B0F522
:1017C000004F04D00DE0012070BD022070BD2068E4
:1017D000016821F0400101602068016841F4804106
:1017E0000160A16C17480864A16C1748C863A16C1C
:1017F0001648C864A06C0565E38E2268216B0C3224
:10180000A06CFFF72FF930B1606D40F010006065FB
:1018100084F85050D7E720680168490603D401686E
:1018200041F04001016084F850502068416841F067
:10183000200141602068416841F0020141600020C0
:1018400070BD0000952000081321000869200008E1
:1018500070477047704770477047704710B5040075
:1018600003D094F83D0010B107E0012010BD002026
:1018700084F83C00204600F01EF8022084F83D0069
:10188000211D206800F0E2FD012084F8460084F864
:101890003E0084F83F0084F8400084F8410084F85A
:1018A000420084F8430084F8440084F8450084F83A
:1018B0003D00002010BD704790F83D10012901D077
:1018C00001207047022180F83D100168CA6842F08B
:1018D0000102CA6000681149884214D0B0F1804FFB
:1018E00011D00F4988420ED00E4988420BD00E49C4
:1018F000884208D00D49884205D00D49884202D05F
:101900000C49884204D1816801F00701062903D0FF
:10191000016841F0010101600020704700000140B2
:101920000004004000080040000C0040000401409A
:10193000004001400018004070472DE9F041044686
:101940000068C66805694FF00007A90713D5B107FD
:1019500011D5F91E01610120207720688069800778
:10196000204602D0FFF7E8FF04E000F07EF82046B2
:1019700000F07CF82777680716D5700714D5216822
:101980006FF004000861022020772068806910F45D
:10199000407F204602D0FFF7CFFF04E000F065F85B
:1019A000204600F063F82777280715D5300713D5B0
:1019B00021686FF008000861042020772068C06962
:1019C0008007204602D0FFF7B7FF04E000F04DF893
:1019D000204600F04BF82777E80616D5F00614D518
:1019E00021686FF010000861082020772068C06926
:1019F00010F4407F204602D0FFF79EFF04E000F085
:101A000034F8204600F032F82777E80708D0F007CE
:101A100006D021686FF001000861204600F028F828
:101A2000280608D5300606D521686FF080000861C9
:101A30002046FFF711FF680608D5700606D5216815
:101A40006FF040000861204600F01CF8A8060AD597
:101A5000B00608D521686FF0200008612046BDE877
:101A6000F041FFF7FABEBDE8F08170477047000013
:101A700000680349884201D1FFF738B97047000078
:101A8000000001407047704770470000F8B50168DA
:101A900004460868CA684B6910F00F0F4FF0000544
:101AA00059D003F0010602F49077374365D0C1079F
:101AB00005D0D10503D5616C41F001016164410796
:101AC00005D5D90703D0616C41F00201616481073B
:101AD00005D5D90703D0616C41F0040161640107A9
:101AE00007D502F02001314303D0616C41F00801B9
:101AF0006164616C00293AD0800604D5900602D555
:101B0000204600F039FD20684069616CC0F3801008
:101B1000090700D460B3204600F007FD2068406943
:101B2000400621D52068143050E8001F21F0400104
:101B300040E80012002AF5D1E06BA8B172490165B6
:101B4000E06BFEF742FE002811D0E06B016D01B0A2
:101B5000BDE8F040084783060FD593060DD5204613
:101B6000BDE8F84000F008BD2046FFF78DFFF8BD46
:101B70002046FFF789FF6564F8BD266B2023012E00
:101B80007ED1C6067CD5D6067AD50868486800900E
:101B900048694FF0020640064DD5E26B1068406878
:101BA0004FF480770004000C3AD0A18D814237D9E0
:101BB000E085D069B8422DD020680C3050E8001F75
:101BC00021F4807140E80012002AF5D12068143019
:101BD00050E8001F21F0010140E80012002AF5D171
:101BE0002068143050E8001F21F0400140E8001246
:101BF000002AF5D184F84230256320680C3050E883
:101C0000001F21F0100140E80012002AF5D1E06B1E
:101C1000FEF792FD6663A08DE18D401A81B206E069
:101C2000A18D8142A8D1D069B842A5D16663204672
:101C3000FFF729FFF8BDA08DE18D401A81B2E08D3C
:101C40000028F7D00029F5D020680C3050E8002F8C
:101C500022F4907240E80027002FF5D1206814305C
:101C600050E8002F22F0010240E80027002FF5D1B4
:101C700084F84230256320680C3050E8002F00E0E3
:101C800006E022F0100240E80023002BF3D1CDE75C
:101C900005062BD5150629D594F841002128C9D170
:101CA000A068B0F5805F01D12069B0B1206A411C05
:101CB0002162216800784860E08C401E0004000C1E
:101CC000E084B7D12068C16821F08001C16020683C
:101CD000C16841F04001C160F8BD206A0088C0F3CE
:101CE00008004860206A801C2062E5E74006F3D5C2
:101CF0005006F1D5CA68204622F04002CA6084F836
:101D0000413000F0C4F8F8BD1D25000870B504008E
:101D100004D094F84100002510B106E0012070BD08
:101D200084F84050204600F023F8242084F8410035
:101D30002068C16821F40051C160204600F07EFC9B
:101D40002068016921F4904101612068416921F016
:101D50002A0141612068C16841F40051C160656495
:101D6000202084F8410084F842006563002070BDA3
:101D700010B586B0044614216846FEF799FB184951
:101D80002068884229D117480021026842F01002D9
:101D90000260006800F010000590124814380268D4
:101DA00042F001020260006800F0010005904FF46B
:101DB000C06000900220CDE90101032003900720BC
:101DC000049069460848FEF785FE0022052125207B
:101DD000FFF71EF82520FFF70DF806B010BD000034
:101DE00000100140443802400000024070472DE9D5
:101DF000F843044690F84100984616460D462028C0
:101E000002D00220BDE8F88385B17EB10020606475
:101E1000212084F84100FEF763FFA6848146E68412
:101E2000A0682027B0F5805F02D003E00120E9E739
:101E3000206910B12E4600250EE000260CE080211E
:101E4000204600F081FCA8B9C6B116F8010B216844
:101E50004860E08C401EE084E08C4B464FF000026E
:101E6000CDF800800028EAD14FF04001204600F074
:101E70006BFC40B184F841700320C3E735F8020BD6
:101E8000C0F30800E3E784F841700020BAE7704728
:101E9000FEE700000D4808B5016841F4001101603B
:101EA0000068002200F40010009011460B20FEF79D
:101EB000AFFF0B20FEF79EFF002205211020FEF74A
:101EC000A7FFBDE808401020FEF794BF303802405D
:101ED00010B5074A0021074800F0B6FD064C044A39
:101EE000002120602432054800F0AEFD606010BD86
:101EF000A84100085523000800000020E50600085E
:101F00002DE9F04387B014216846FEF7D1FA334833
:101F10000024016841F010010160016801F0100126
:101F20000591016841F004010160016801F00401BC
:101F30000591016841F080010160016801F08001B4
:101F40000591016841F008010160016801F0080194
:101F50000591016841F001010160016801F0010192
:101F60000591016841F0020101600068DFF87080AE
:101F700000F002000590012208214046FEF7AAFE6B
:101F80004FF40046002231464046FEF7A3FEDFF83C
:101F900054907711002239464846FEF79BFE0820F0
:101FA0000125CDE900050320CDE9025069464046F0
:101FB000FEF790FD0096CDE9015469464046039432
:101FC000FEF788FD0097CDE9015469464846039421
:101FD000FEF780FD07B0BDE8F08300003038024016
:101FE00000100240000C02400F4810B50D4901607E
:101FF0004FF48271416000218160C1604FF4007232
:102000000161C0E90512C1610162416281620A2178
:10201000C162FFF7F2F9002803D0BDE81040FEF7D7
:102020005EBB10BD003C0040F40800200C4810B519
:102030000A4901604FF4E1314160002181600C22C6
:10204000C160C0E904128161C161FFF75FFE002831
:1020500003D0BDE81040FEF742BB10BD00100140A8
:102060000C0A0020FEE7FEE710B5806B01684A68A5
:1020700022F003024A60416D41F0100141650121E7
:1020800080F85110FFF7B8F910BD10B5806BFFF75D
:10209000F0FA10BD10B5806BFFF7DBFB10BD10B57B
:1020A000806BFFF7D8FB10BD70B50546846BFEF75B
:1020B00017FE024628680068C00526D420684168DB
:1020C00021F020014160A06818B96068B0F5827FF6
:1020D00016D02068416821F001014160642120464A
:1020E00000F076F808B1202060650020E08701202C
:1020F00084F85100606D40B12046FFF77DF970BD56
:102100002068416821F00301E7E72046FFF7B0FAB5
:1021100070BD38B50546846BFEF7E2FD02462868BF
:102120000068C00523D42068416821F02001416087
:102130002068416821F0020141606421204600F0DE
:1021400075F818B1606D40F020006065A06800214E
:1021500018B92068C26880680090E186012084F880
:102160005100606D18B12046FFF746F938BD204692
:10217000FFF76EFB38BD70B50546846BFEF7B0FD0A
:10218000024628680068C0051ED42068416821F016
:10219000200141606421204600F048F818B1606DCC
:1021A00040F0200060652068416821F00301416033
:1021B0000020E086E087012084F85100606D18B1AE
:1021C0002046FFF719F970BD2046FFF743FB70BDAD
:1021D000F8B5044640684FF48273984221D1A06854
:1021E0004FF48065B0F5004F01D0A8420AD12068B5
:1021F000066826F0400606606068984211D1A06823
:10220000A8420ED000920B4600228021204600F00A
:1022100043F8002804D0606D40F020006065032082
:10222000F8BD00920B4600220121EFE7F8B51546F4
:102230000E460B46009204460122022100F02CF8C3
:10224000A0B9134813490068B0FBF1F04FF47A715C
:10225000484300906068B0F5827F0DD1334600227C
:1022600080212046009500F017F870B1606D40F0B5
:10227000200060650320F8BD009830B1401E00903A
:1022800020688068C0430006F6D50020F8BD000035
:102290001400002000366E012DE9F8431E469146D9
:1022A00088460446089DFEF71BFD401B351AFEF7C5
:1022B00017FD074626480068C0F3CB3068430AE0A4
:1022C000701C09D0FEF70CFDC01BA8420FD275B1DF
:1022D0000098B8B3401E00902068816838EA010079
:1022E00033D000214945EBD10020BDE8F8832068B8
:1022F000416821F0E00141606068B0F5827F0BD158
:10230000A068B0F5004F02D0B0F5806F04D120680E
:10231000016821F040010160A06AB0F5005F09D1B9
:102320002068016821F4005101602068016841F4CF
:1023300000510160012084F85100002084F8500011
:102340000320D2E7FFE70025C6E70121CAE7000026
:10235000140000204FF40044074D084F6611214639
:102360002846FEF7AFFC31463846FEF7ABFCC820E6
:1023700000F02FFBF3E7000000100240000C0240C9
:1023800010B54FF0E020006901F052FD012803D0A4
:10239000BDE8104001F080BA10BD000030B593B028
:1023A00030216846FEF784F814210CA8FEF780F867
:1023B0001D480025016841F080510160006800F06F
:1023C000805011901948016841F480410160006813
:1023D000022400F48040119001200390102004900A
:1023E000009406940820CDE90750A820CDE90904FF
:1023F00004200B906846FEF749FE08B172B6FEE76E
:102400000CA90F2081E831004FF4A0500F904FF439
:102410008050109005210CA8FEF72CFD002801D05B
:1024200072B6FEE713B030BD403802400070004085
:102430000248016841F470010160704788ED00E0D6
:102440000148FFF77ABA0000540A0020F0B502688C
:10245000274B284D284E294F294C4FF0804C98424D
:1024600009D0604507D0A84205D0B04203D0B84299
:1024700001D0A04204D122F0700E4A6842EA0E0256
:1024800098421BD0604519D0A84217D0B04215D051
:10249000B84213D0A04211D01A4DA8420ED01A4D06
:1024A000A8420BD0194DA84208D0194DA84205D01A
:1024B000184DA84202D0184DA84203D122F440750D
:1024C000CA682A434D6922F080022A438D68C5629A
:1024D0000D688562984201D0A04201D1096901636B
:1024E000016841F004010160012141610260F0BD19
:1024F000000001400004004000080040000C0040C3
:1025000000040140004001400044014000480140F7
:1025100000180040001C00400020004010B5806BF7
:102520000021C185FFF7B0FA10BD01680C3151E8F8
:10253000002F22F4907241E80023002BF5D10168AE
:10254000143151E8002F22F0010241E80023002B52
:10255000F5D1016B012909D101680C3151E8002F37
:1025600022F0100241E80023002BF5D1202180F851
:10257000421000210163704708B590F842102229EB
:1025800001D0022008BD82684FF480539A4201D1E5
:10259000016921B1816A9A421BD04AB10AE00268FE
:1025A000816A5268C2F308020A80816A891C08E0C5
:1025B000026972B10268526802F07F020A70816A91
:1025C000491C8162C18D491E0904090CC18503D0D3
:1025D0001BE002685268F1E70168CA6822F0200235
:1025E000CA600168CA6822F48072CA6001684A69D8
:1025F00022F001024A61202180F84210002141634B
:10260000026B012A03D0FFF7F1FB002008BD016334
:1026100001680C3151E8002F22F0100241E800233C
:10262000002BF5D101680A68D20602D50A6849680C
:102630000091818DFFF727FAE7E7000070B50446A7
:1026400000680169E26821F4405111430161216988
:10265000A068E26908436169114308432168CA68B8
:1026600049F20C639A430243CA6020684169A26937
:1026700021F440711143416131492068884202D000
:102680003049884202D1FEF7BFFC01E0FEF7ACFC06
:10269000E2690023192164253226B2F5004F6268F1
:1026A00028D0A0FB0101930F9200FDF73DFE0146EB
:1026B000B0FBF5F06FF01802504301EB800006EB21
:1026C0000010B0FBF5F000F0F002B1FBF5F002EB0A
:1026D0000012B1FBF5F06FF01803584301EB8000D6
:1026E00006EB0010B0FBF5F000F00F00216810447D
:1026F000886070BDA0FB010192185B41FDF714FEDC
:102700000146B0FBF5F00201B1FBF5F06FF01803E4
:10271000584301EB800006EBC000B0FBF5F000F081
:10272000F80002EB4002B1FBF5F0584301EB8000EA
:1027300006EBC000B0FBF5F000F00700D6E70000A4
:1027400000100140001401402DE9F8439846174657
:102750000D460446089E24E0701C22D0FEF7C0FA05
:10276000A0EB0800B0421AD8CEB12068C168490772
:1027700017D5802D15D0402D13D00168C943090706
:102780000FD401680025406800902046FFF7CDFE79
:102790000820606484F840500120BDE8F8830320DD
:1027A000FBE72068006835EA000004D00020B8424A
:1027B000D2D00020F1E70120F9E700000148FFF73F
:1027C00065B900000C0A0020FEE70000F8B51546C8
:1027D0000E46044600F0BCF802208DF80000200CE4
:1027E0008DF80100200A8DF80200124F8DF8034089
:1027F000002208213846FEF76DFA042269460E4889
:10280000FEF7C0FF0C4C00BF94F851000128FBD12B
:102810002A4631460848FEF7B5FF00BF94F851003C
:102820000128FBD1012208213846FEF753FA00F0B7
:1028300063F8F8BD00100240F4080020F8B50E4619
:1028400003218DF80010010C8DF80110010A8DF89C
:102850000210114F15468DF803000022082138465A
:10286000FEF738FA042269460C48FEF78BFF0B4C42
:1028700094F851000128FBD12A4631460748FEF75B
:1028800083FE00BF94F851000128FBD101220821EA
:102890003846FEF71FFAF8BD00100240F408002089
:1028A00038B5044600F054F820208DF80000200CC4
:1028B0008DF80100200A8DF802008DF803400C4CC1
:1028C000002208212046FEF705FA0422694609483D
:1028D000FEF758FF074800BF90F851100129FBD1BF
:1028E000012208212046FEF7F5F900F005F838BD71
:1028F00000100240F40800207CB50520124C134D56
:102900008DF80000002208212846FEF7E3F9012295
:1029100069460D48FEF736FF94F851000128FBD1B7
:10292000012201A90848FEF72FFE00BF94F85100CC
:102930000128FBD1012208212846FEF7CBF99DF89A
:102940000400C007DED17CBDF40800200010024066
:1029500038B506200B4C8DF80000002208212046D7
:10296000FEF7B8F9012269460748FEF70BFF064853
:1029700090F851100129FBD1012208212046FEF7D1
:10298000A9F938BD00100240F40800200907090E1B
:10299000002804DB00F1E02080F80014704700F00C
:1029A0000F0000F1E02080F8141D7047FEF7A6F933
:1029B000FFF7F4FCFFF7A4FAFFF76CFAFFF714FB3C
:1029C000FFF734FB00F012F8FFF782FA00F020F86E
:1029D000FEE710B5EFF3058111B16FF0050403E0D8
:1029E000002408B100F0F8FD204610BDEFF305808B
:1029F00010B16FF0050070470448016811B14FF045
:102A0000FF307047012101600020704768000020FE
:102A100010B5EFF3058010B16FF0050010BD084848
:102A20000168012902D04FF0FF3010BD054A002196
:102A300082F8141D0221016000F036FE002010BD56
:102A4000680000200BE000E02DE9FF414FEA0103A0
:102A50004FF00005EFF30581039549BB40B3802794
:102A6000182100244AB3166806B1344696691EB18F
:102A70003146761E382E02D21679F60703D0002092
:102A800004B0BDE8F081566906B1B708D2F808C0B5
:102A9000BCF1000F0DD0D5685C2D18D312693AB186
:102AA00036B18DE806103A46214601F096F90390BA
:102AB0000DE0D6685EB912694AB903AACDE90012E1
:102AC000BAB2214601F05CF9012800D003950398C1
:102AD000D6E700002DE9F041134C0F460546E668A5
:102AE0002068001D00F044FC681C07D137B1216844
:102AF000BDE8F0410D48091D00F08ABC206835444E
:102B0000B5424560216805D2A06BBDE8F041091DC2
:102B100000F066BC606B091D00F062FCA06A854293
:102B200000D2A562BDE8F081180000208C0F0020C3
:102B30002DE9F041054600F077FC2D4CA068401CC3
:102B4000A06020682B4F10B1606930B32BE0256086
:102B5000A068012827D1002606EB860007EB80003D
:102B600000F030FC761C382EF6D3234800F02AFC07
:102B70002148143000F026FC1F48283000F022FCC9
:102B80001D483C3000F01EFC1B48503000F01AFC81
:102B9000194860631430A06305E02068E96AC06AE0
:102BA000884200D82560606A401C60626864E86AF8
:102BB0002169884200D9206100EB800007EB80008A
:102BC000291D00F025FC00F04FFC606900280CD0A6
:102BD0002068E96AC06A884207D208494FF08050ED
:102BE0000860BFF34F8FBFF36F8FBDE8F081000027
:102BF00018000020DC0A00203C0F002004ED00E05B
:102C000038B500F011FC104C2068C8B90F4800F02E
:102C1000D9FB0E48143000F0D5FB0C48E0601430AE
:102C200020610A4B0020F03B009003F1500210217C
:102C30000A2000F047FE206010B105A100F096FCCC
:102C4000BDE8384000F010BC540000209010002077
:102C5000546D72510000000030B4026C0B46002A23
:102C60000BD0C1681144C1608468A14201D30168DE
:102C7000C16030BC1846FDF7CEBB30BC70472DE9B3
:102C8000F041856B174604460026026C82B1C7B13D
:102C9000E068FDF7C0FBE168206C091AE16022687A
:102CA000914202D2A168081AE060022F16D017E004
:102CB0002068A8B9A06801F033F906460020A0609A
:102CC0000EE06068FDF7A7FB216C60680844606057
:102CD000A168884204D32068606001E005B16D1EE0
:102CE0006D1CA5633046BDE8F08110B5044690F830
:102CF000590058B101280CD002280FD0502080F381
:102D00001188BFF34F8FBFF36F8FFEE7206B00F08A
:102D1000BFFB2046BDE8104000F0BABB10BD00006C
:102D200010484FF47051420706D0C01D0D4920F0E5
:102D30000700411AC1F570510B4A00230144C2E952
:102D400000030839183A21F0070111604B600B604D
:102D50000B1AC0E9001393604FF0004053605061BC
:102D6000704700007017002084000020144E154C9E
:102D7000A6F29C474FF08058DFF84C9012E000BF5D
:102D800000F052FBF068C568281D00F0F1FAA06859
:102D9000401EA0606068401E606000F065FB284631
:102DA000FFF7A3FF60680028EAD138680128F9D945
:102DB000C9F80080BFF34F8FBFF36F8FF2E70000B9
:102DC000780F00201800002004ED00E070B51D46CB
:102DD000049C51B1C4F80020C4E90F010121204630
:102DE00000F0A4FD84F84C5070BD2460F4E70000AE
:102DF0002DE9F05F8846DDE90B9415468346910086
:102E00009A460A9EA522206BFDF74AFB6FF003014C
:102E1000206B01EB8501084420F00707780707D0F5
:102E2000502080F31188BFF34F8FBFF36F8FFEE701
:102E30000025B8F1000F0FD05FF00000221818F83D
:102E4000001082F8341018F8001011B1401C10283E
:102E5000F4D384F8435001E084F83450382E00D382
:102E60003726E662C4E91365201D00F0B6FA04F1C6
:102E7000180000F0B2FA2461C6F138006462A06163
:102E8000656584F8585052465946384600F05AFA5B
:102E90002060B9F1000F01D0C9F80040BDE8F09FF3
:102EA00030B5114900E011460A688242FBD34B68F5
:102EB0005C18844203D1406818444860084643685F
:102EC0001C18944209D1084C183C2468A24209D02D
:102ED00052681A4442600A6812680260814200D057
:102EE000086030BD0460F9E78400002070B500245C
:102EF00041600B4D0061914206D8D11A826991421E
:102F000006D2011D286907E09A4203D2994201D3F3
:102F1000012403E0011DE86800F062FA204670BD5C
:102F20005400002010B5044600F07EFAA06B28B1D2
:102F30005FF0000400F098FA204610BD0124F9E784
:102F400030B589B03C4D6EE00498002806DADDE922
:102F50000601059A90470498002864DB069C606986
:102F600010B1201D00F004FA03A800F0D7F80246C3
:102F700004980A2857D2DFE800F00505052D334AEA
:102F800005052D3394F8280040F0010084F828004E
:102F90000599A069059B01442046FFF7A7FF68B388
:102FA000216A2046884794F8280040073BD5002036
:102FB00000900598A169002342181946204601F0A7
:102FC000B9F8D8B9502080F31188BFF34F8FBFF301
:102FD0006F8FFEE714F8280F20F00100207022E028
:102FE00094F8280040F0010084F828000598A061BA
:102FF00028B1811813462046FFF778FF13E05020D0
:1030000080F31188BFF34F8FBFF36F8FFEE794F803
:103010002800810703D4204600F03AFA03E020F0AC
:10302000010084F82800002204A9286800F0D2FDDD
:10303000002889D109B030BD540000202DE9FC41A1
:103040000F46054600F074FB01A800F067F804463F
:10305000019818B100F0DCFFBDE8FC81254EAFB14E
:1030600030690068D0B30027291B3A46306800F069
:1030700091FA00F0CDFF0028EED11F494FF08050AB
:103080000860BFF34F8FBFF36F8FE5E7A542EBD822
:1030900000F0BEFFF0682746C068C468201D00F03D
:1030A00067F994F82800410719D5A0692B46411902
:1030B0003A462046FFF71AFFA8B100200346014612
:1030C00000902A46204601F035F860B9502080F380
:1030D0001188BFF34F8FBFF36F8FFEE707E020F03B
:1030E000010084F82800216A20468847B4E70127B8
:1030F000BAE700005400002004ED00E00648416BF0
:10310000096829B1416BC968C9684968816270471B
:103110004FF0FF31FAE700001800002070B50546B7
:1031200000F094FE064E0446B068844203D200F0DC
:1031300009F8012000E0002028602046B46070BD3E
:1031400054000020F8B5194D20E0C068C468066836
:10315000201D00F00DF9216A2046884794F82800C8
:10316000400713D5A0693044B04206D9246160609D
:10317000211DE86800F034F908E00020034601460C
:1031800000903246204600F0D5FF38B1E86801686B
:103190000029DAD12969C5E90310F8BD502080F370
:1031A0001188BFF34F8FBFF36F8FFEE754000020ED
:1031B00008484068401C4FF0500080F3118804D04C
:1031C000BFF34F8FBFF36F8FFEE7BFF34F8FBFF398
:1031D0006F8FFEE78C000020074CE068016841B16A
:1031E000C0680021D0F80000FFF728FFFFF7A8FE15
:1031F000F3E701210020F7E7540000202DE9F0411A
:10320000044600F011F994F9455004F1240609E050
:10321000606A48B1304600F0C3FE08B100F00AFA17
:103220006D1E6DB2002DF3DC4FF0FF3684F8456063
:1032300000F01AF900F0F8F894F9445004F110077E
:1032400009E0206948B1384600F0AAFE08B100F054
:10325000F1F96D1E6DB2002DF3DC84F84460BDE819
:10326000F04100F001B900002DE9F04105460027CA
:1032700000F05EFA324E306808B9FFF751FD706910
:1032800005424ED1C5B3083568070ED005F00700DA
:10329000C0F108000544680707D0502080F311886A
:1032A000BFF34F8FBFF36F8FFEE72DB3706885427A
:1032B00037D82348183001460C6801E020460C46F8
:1032C0006168A94202D221680029F7D131688C4295
:1032D00027D007682168016060680837411B102902
:1032E0000FD96019420708D0502080F31188BFF32E
:1032F0004F8FBFF36F8FFEE713E041606560FFF70C
:10330000CFFD61687068401A7060B268904200D268
:10331000B060706901430020C4E90001F068401CFE
:10332000F06000F075FE780707D0502080F3118818
:10333000BFF34F8FBFF36F8FFEE73846BDE8F081D4
:103340006C00002010B5031F4FF080741C601B1F21
:1033500021F001011960191F044B0B6014390A6038
:10336000091F6FF0020244380A6010BDB131000835
:10337000D0E9013201699A60D0E901235A604A68B4
:10338000824201D182684A60002202610868401EC0
:103390000860086870470000034B036003F15C009D
:1033A0000860802010607047B8100020044B036054
:1033B00003F15C0008604FF48070106070470000FB
:1033C0001413002000F108014FF0FF32C0E9011290
:1033D000C1600161002101607047002101617047F7
:1033E00030B50B685A1C02D000F1080202E00269F5
:1033F00004E02246546825689D42FAD953684B6020
:1034000099608A60516008610168491C016030BDA3
:1034100042684A6093688B60936859609160086164
:103420000168491C01607047502080F31188BFF388
:103430004F8FBFF36F8F0A494868401C48600128CE
:103440000CD10848006810F0FF0F07D0502080F31F
:103450001188BFF34F8FBFF36F8FFEE770470000F7
:103460008C00002004ED00E00849486828B1401EA7
:10347000486001D180F311887047502080F3118893
:10348000BFF34F8FBFF36F8FFEE700008C0000206B
:1034900070B500282AD0164DA0F10804606869694B
:1034A000084207D1502080F31188BFF34F8FBFF33C
:1034B0006F8FFEE722683AB1502080F31188BFF386
:1034C0004F8FBFF36F8FFEE78843606000F030F9E5
:1034D00060686968084468602046FFF7E1FC286975
:1034E000401C2861BDE8704000F092BD70BD000036
:1034F0006C0000204FF0E02000210161816105494E
:103500004FF47A720968B1FBF2F1491E416107215B
:10351000016170471400002010B5FCF7E1FE11496D
:1035200010280ED300F1E02090F8F0030A789042C2
:1035300007D2502080F31188BFF34F8FBFF36F8FF6
:10354000FEE709480068896800F4E060884207D90E
:10355000502080F31188BFF34F8FBFF36F8FFEE7CA
:1035600010BD00008C0000200CED00E010B5084BF1
:10357000002200BF53F832401CB1521C082AF9D374
:1035800010BD43F8321003EBC201486010BD0000CB
:103590009C0A002070B515460E460446FFF744FF0E
:1035A00094F944100020491C01D184F8440094F996
:1035B0004510491C01D184F84500FFF755FFA06B69
:1035C00028B92A46314604F1240000F051F820467B
:1035D000BDE87040FFF712BE10B5020014D00F48CE
:1035E000006B38B1502080F31188BFF34F8FBFF3C9
:1035F0006F8FFEE700F09CF800211046FFF76AFA93
:1036000000F006FD002807D105494FF08050086002
:10361000BFF34F8FBFF36F8F10BD00001800002065
:1036200004ED00E002490A6A0260C968416070471F
:103630001800002001490120C861704718000020CF
:1036400010B50C4650B1094909681831FFF7C8FE9A
:103650002046BDE810400121FFF73CBA502080F31E
:103660001188BFF34F8FBFF36F8FFEE71800002064
:1036700070B514460D4668B10A4909681831FFF75C
:10368000C7FE0CB14FF0FF3521462846BDE870401B
:10369000FFF720BA502080F31188BFF34F8FBFF39C
:1036A0006F8FFEE71800002030B587B00024039428
:1036B00005AA04A903A80494FFF76EFEDDE903013F
:1036C0000094CDE90110002315A11748059A00F0D8
:1036D00084FB164D0028E8621FD000F0FBFC012897
:1036E00009D0401C19D1502080F31188BFF34F8FAF
:1036F000BFF36F8FFEE7502080F31188BFF34F8F29
:10370000BFF36F8F4FF0FF30A86201206861EC605B
:1037100007B0BDE8304000F045B807B030BD00004C
:1037200049444C45000000006D2D000818000020A1
:103730000248016B491C016370470000180000201B
:10374000164810B5016B11B10121C16110BD0021F6
:10375000C1610169124A01E0B9B1491E01EB81035F
:1037600052F82330002BF7D001EB810302EB8302E8
:1037700002F1080453685B685360A34201D15B689F
:103780005360DA680260016110BD502080F3118837
:10379000BFF34F8FBFF36F8FFEE7000018000020CC
:1037A000DC0A00201CB537480168374A914207D12E
:1037B000502080F31188BFF34F8FBFF36F8FFEE768
:1037C00000683149491E884207D1502080F3118892
:1037D000BFF34F8FBFF36F8FFEE72C49087801903E
:1037E000FF20087008788DF800009DF800009DF813
:1037F000002000F0F000904207D0502080F31188A4
:10380000BFF34F8FBFF36F8FFEE79DF80000204C92
:1038100000F0500020700720A06005E09DF8002017
:1038200052008DF80020401E9DF800201206F5D4AD
:10383000A060032807D0502080F31188BFF34F8F7A
:10384000BFF36F8FFEE74FF44070A06001980870DF
:103850000C482030016841F470010160016841F0BA
:1038600070410160FFF746FE00206060FCF700FD3C
:103870000848016841F040410160FCF7E5FC002088
:103880001CBD000000ED00E071C20F4100E400E04B
:103890008C00002034EF00E010B5502080F3118838
:1038A000BFF34F8FBFF36F8F00F0D6FA18B1044902
:1038B0004FF080500860002080F3118810BD000098
:1038C00004ED00E038B5049D18B153B1CAB181B11F
:1038D00020E0502080F31188BFF34F8FBFF36F8F2C
:1038E000FEE7502080F31188BFF34F8FBFF36F8F37
:1038F000FEE7502080F31188BFF34F8FBFF36F8F27
:10390000FEE739B1502080F31188BFF34F8FBFF32A
:103910006F8FFEE750241C46012384F846302B4667
:103920000094FFF753FA204638BD000070B50D46ED
:10393000040025D0FFF778FDD4E90F20216802FBB1
:103940000011A1600021A163216861600A46D4E9E9
:103950000F01401E00FB0121E16021464FF0FF30C6
:1039600001F8440F487004F110008DB1FFF72AFDF3
:1039700004F12400FFF726FDFFF776FD012070BD5E
:10398000502080F31188BFF34F8FBFF36F8FFEE796
:1039900021690029F0D000F003FB0028ECD0044995
:1039A0004FF080500860BFF34F8FBFF36F8FE3E796
:1039B00004ED00E02DE9FF4782B01D468A464FF036
:1039C0000008040003D0BAF1000F08D011E0502025
:1039D00080F31188BFF34F8FBFF36F8FFEE7206C2A
:1039E00038B1502080F31188BFF34F8FBFF36F8F32
:1039F000FEE7022D0AD1E06B012807D0502080F3AA
:103A00001188BFF34F8FBFF36F8FFEE700F010FAFE
:103A10003F4F4FF000094FF0805648B9049838B135
:103A2000502080F31188BFF34F8FBFF36F8FFEE7F5
:103A3000FFF7FAFCA06BE16B884207D3022D05D09B
:103A40000498D0B1B8F1000F1AD01EE02A465146B2
:103A50002046FFF714F9616A19B104F1240000F05F
:103A60009FFA20B13E60BFF34F8FBFF36F8FFFF718
:103A7000FBFC012006B0BDE8F087FFF7F5FC22E073
:103A80006846FFF7CFFD4FF00108FFF7EDFCFFF7A9
:103A90004FFEFFF7C9FC94F94400401C01D184F8A3
:103AA000449094F94500401C01D184F84590FFF7FB
:103AB000DBFC04A9684600F029F930B12046FFF785
:103AC0009DFB00F0A5FA0020D4E7FFF7ADFCA06B4A
:103AD000E16B884213D1FFF7C7FC04F11000049991
:103AE000FFF7AEFD2046FFF789FB00F091FA0028B2
:103AF0009ED13E60BFF34F8FBFF36F8F98E7FFF704
:103B0000B3FC2046FFF77AFB00F082FA90E7000052
:103B100004ED00E02DE9F0471F4690468946040079
:103B200003D0B9F1000F08D011E0502080F31188C4
:103B3000BFF34F8FBFF36F8FFEE7206C38B150207B
:103B400080F31188BFF34F8FBFF36F8FFEE7022F13
:103B50000AD1E06B012807D0502080F31188BFF311
:103B60004F8FBFF36F8FFEE7FFF7D6FC5020EFF3C8
:103B7000118680F31188BFF34F8FBFF36F8FA06B57
:103B8000E16B884206D3022F04D0002086F311880F
:103B9000BDE8F08794F94550A06B3A464946204667
:103BA000FFF76DF8681C04D06D1C84F845500120A7
:103BB000ECE7606A0028FAD004F1240000F0F0F984
:103BC0000028F4D0B8F1000FF1D00121C8F800109E
:103BD000EDE700002DE9F747002683B08A46040090
:103BE00003D0BAF1000F08D011E0502080F3118803
:103BF000BFF34F8FBFF36F8FFEE7206C38B15020BB
:103C000080F31188BFF34F8FBFF36F8FFEE700F093
:103C10000FF9DFF8F4804FF000094FF0805748B9F2
:103C2000059838B1502080F31188BFF34F8FBFF350
:103C30006F8FFEE7FFF7F8FBA56BC5B15146204635
:103C4000FFF70AF86D1EA563206950B104F110005A
:103C500000F0A6F928B1C8F80070BFF34F8FBFF38A
:103C60006F8FFFF701FC012006B0BDE8F0870598D3
:103C700008B11EB106E0FFF7F7FB27E06846FFF743
:103C8000D1FC0126FFF7F0FBFFF752FDFFF7CCFB5D
:103C900094F94400401C01D184F8449094F9450003
:103CA000401C01D184F84590FFF7DEFB05A968466A
:103CB00000F02CF8002820460AD0FFF79FFA00F009
:103CC000A7F92046FFF72EF90028B3D00020CBE754
:103CD000FFF728F990B104F124000599FFF7B0FC33
:103CE0002046FFF78BFA00F093F90028A2D1C8F81C
:103CF0000070BFF34F8FBFF36F8F9BE72046FFF736
:103D00007DFA00F085F995E704ED00E02DE9F0413A
:103D10000C46050011D0C4B1FFF786FB174BDA68DB
:103D20006E682068911B471C17D02F681B6A9F4242
:103D300019D0964217D8012410E0502080F3118842
:103D4000BFF34F8FBFF36F8FFEE7502080F31188D2
:103D5000BFF34F8FBFF36F8FFEE70024FFF784FBA5
:103D60002046BDE8F081884205D9401A20602846E7
:103D7000FFF758FCF1E700202060DCE71800002086
:103D80002DE9FF5F8346DDE90E87994616468A4690
:103D90009000FFF769FA05001CD05C20FFF764FA79
:103DA000040014D00020256384F85900CDE90240B6
:103DB000CDE900874B46324651465846FFF718F882
:103DC0002046FEF7B5FE012004B0BDE8F09F28466E
:103DD000FFF75EFB4FF0FF30F6E7F0B585B0DDE9A9
:103DE0000B640A9DA6B1DCB15C270097266302260E
:103DF00084F85960002604AFCDE90246CDE90057AA
:103E0000FEF7F6FF2046FEF793FE049805B0F0BDDE
:103E1000502080F31188BFF34F8FBFF36F8FFEE701
:103E2000502080F31188BFF34F8FBFF36F8FFEE7F1
:103E30000548416919B1006B18B100207047012095
:103E40007047022070470000180000200148C06839
:103E500070470000180000202DE9F0412E4C00278B
:103E6000206B28B1A069401CA0613846BDE8F081F4
:103E7000E668761CE66013D1606B006838B15020AC
:103E800080F31188BFF34F8FBFF36F8FFEE7606B36
:103E9000A16B6163A063206A401C2062FFF72EF9CA
:103EA000A06ADFF87880864209D3606B0068A0B111
:103EB000606BC068C5686868864211D2A0622068DD
:103EC000C06A00EB800158F82100012800D90127C1
:103ED000E0690028C9D00127C7E74FF0FF30EDE7C0
:103EE000281DFFF745FAA86A18B105F11800FFF779
:103EF0003FFAE86A2169884200D9206100EB80011D
:103F000008EB8100291DFFF783FAE86A2168C96A76
:103F10008842CAD30127C8E718000020DC0A002025
:103F200070B504004FF0000133D01B4D2868844267
:103F300007D0502080F31188BFF34F8FBFF36F8FEE
:103F4000FEE7206D38B1401E2065E36CE26A9A42BC
:103F50001FD040B11DE0502080F31188BFF34F8F78
:103F6000BFF36F8FFEE7201DFFF702FAE06CE062FF
:103F7000C0F13800A061E06A2969884200D928614F
:103F8000064900EB800001EB8000211DFFF740FA9D
:103F90000121084670BD000018000020DC0A002046
:103FA00070B5C068C46854B104F118000646FFF744
:103FB000DFF9144D286B50B13146134815E05020FD
:103FC00080F31188BFF34F8FBFF36F8FFEE7201D83
:103FD000FFF7CEF9E06A2969884200D928610B49C8
:103FE00000EB800001EB8000211DFFF711FAE06A71
:103FF0002968C96A884202D90120E86170BD0020A1
:1040000070BD000018000020640F0020DC0A0020B2
:104010002DE9F0472C4D00242746286B38B1FFF7D7
:1040200003FA286B401E2863286B40B146E05020FD
:1040300080F31188BFF34F8FBFF36F8FFEE7A9683E
:10404000224E0120D1B3A6F5916980463068E0B1D7
:10405000F068C46804F11800FFF78AF9201DFFF723
:1040600087F9E06A2969884200D9286100EB80015C
:1040700009EB8100211DFFF7CBF9E06A2968C96AC5
:104080008842E3D3C5F81C80E0E70CB1FFF736F8AF
:10409000AC694CB14FEA0806FFF7DEFE00B1EE61F5
:1040A000641EF9D10020A861E86938B108490127E8
:1040B00038070860BFF34F8FBFF36F8FFFF7D4F956
:1040C0003846BDE8F087000018000020640F00208B
:1040D00004ED00E010B586B0FEF792FD114C2068AB
:1040E000B8B100200390049005AA04A903A8FFF723
:1040F0005DF9DDE9032102208DE8070000230AA114
:104100000B48059AFFF769FE606010B106B0012008
:1041100010BD502080F31188BFF34F8FBFF36F8F16
:10412000FEE7000054000020546D722053766300B7
:10413000D93100082DE9FF411E46134602000A9DB1
:104140004FF0000016D0144C2768002F0FD0CDE997
:1041500000130292062917DAFFF76AFE02284FF0D1
:1041600000030FD0002269462068FFF723FC04B04B
:10417000BDE8F081502080F31188BFF34F8FBFF36B
:104180006F8FFEE72A46EEE700233246694638463F
:10419000FFF7C0FCEBE70000540000204FF0407038
:1041A000E1EE100A704700001C4200080000000009
:1041B00000000000000000000000000000020000FD
:1041C000180000000000000000000000104200087D
:1041D00000000000980800205C000000980000200B
:1041E00000080000180000000000000000000000AF
:1041F0000006101600061016000000000000000067
:10420000010203040607080900000000010203047C
:10421000666C6173685461736B000000646566616D
:10422000756C745461736B004842000800000020F4
:1042300098000000C4010008E04200089800002037
:1042400038590000E00100080000000000000000F4
:104250000100000010000000000000000024F40035
:10426000000000000000000000000000000000004E
:10427000000000000000000000000000000000003E
:10428000000000000000000000000000000000002E
:10429000000000000000000000000000000000001E
:1042A000000000000000000000000000000000000E
:1042B00000000000000000000000000000000000FE
:1042C00000000000000000000000000000000000EE
:1042D0000000000000000000AAAAAAAA0000000036
:040000050800018965
:00000001FF
