:020000040800F2
:100000000844002061020008351000089F0F000816
:1000100031100008910300081512000800000000CC
:10002000000000000000000000000000A101000826
:100030009503000800000000FD01000845100008BD
:100040007B0200087B0200087B0200087B0200089C
:100050007B0200087B0200087B0200087B0200088C
:100060007B0200087B0200087B0200087B0200087C
:100070007B0200087B0200087B0200087B0200086C
:100080007B0200087B0200087B0200087B0200085C
:100090007B0200087B0200087B0200087B0200084C
:1000A0007B020008251100087B0200087B02000883
:1000B0007B0200087B0200087B0200087B0200082C
:1000C0007B0200087B0200087B0200087B0200081C
:1000D0007B0200087B0200087B0200087B0200080C
:1000E0007B0200087B0200087B0200087B020008FC
:1000F0007B0200087B0200087B0200087B020008EC
:100100007B0200087B0200087B0200087B020008DB
:100110007B0200087B0200087B0200087B020008CB
:100120007B0200087B0200087B0200087B020008BB
:100130007B0200087B0200087B0200087B020008AB
:100140007B0200087B0200087B0200087B0200089B
:100150007B0200087B0200087B0200087B0200088B
:100160007B0200087B0200087B0200087B0200087B
:100170007B0200087B0200087B02000800000000F0
:100180007B0200087B020008DFF810D000F0EEF8D8
:10019000004800476F120008AFF3008008440020B9
:1001A0002C4B19680868B0E8F04F80F30988BFF35A
:1001B0006F8F4FF0000080F311887047000000003F
:1001C00008480068006880F308884FF0000080F35A
:1001D000148862B661B6BFF34F8FBFF36F8F00DF35
:1001E00000BF00BF08ED00E0DFF80C00016841F43B
:1001F00070010160704700BF88ED00E0EFF30980F7
:10020000BFF36F8F134B1A681EF0100F08BF20ED5D
:10021000108A20E9F04F106009B44FF0500080F3CD
:100220001188BFF34F8FBFF36F8F01F001FD4FF0C7
:10023000000080F3118809BC19680868B0E8F04F25
:100240001EF0100F08BFB0EC108A80F30988BFF3CE
:100250006F8F704714000020EFF305807047000097
:100260000648804706480047FEE7FEE7FEE7FEE750
:10027000FEE7FEE7FEE7FEE7FEE7FEE711110008F6
:10028000890100082DE9F05F0546002092469B4653
:1002900088460646814640241BE02846414647469C
:1002A000224600F053F853465A46C01A914110D3E3
:1002B00011461846224600F03AF82D1A67EB01085D
:1002C0004F4622460120002100F031F817EB0009CB
:1002D0004E41201EA4F10104DFDC484631462A4687
:1002E0004346BDE8F09F40EA01039B0703D009E0C5
:1002F00008C9121F08C0042AFAD203E011F8013B12
:1003000000F8013B521EF9D27047D2B201E000F86A
:10031000012B491EFBD270470022F6E710B51346A9
:100320000A4604461946FFF7F0FF204610BD202A72
:1003300004DB203A00FA02F1002070479140C2F13C
:10034000200320FA03F3194390407047202A04DB6E
:10035000203A21FA02F00021704721FA02F3D0403E
:10036000C2F120029140084319467047064C074DE0
:1003700006E0E06840F0010394E807009847103475
:10038000AC42F6D3FFF704FFD0210008F0210008AB
:1003900000BFFEE7704772B600BFFEE70148006885
:1003A00070470000040000200348006803490978F2
:1003B0000844014908607047040000200C00002038
:1003C00010B50D48006840F400700B4908600846FD
:1003D000006840F4806008600846006840F480705F
:1003E0000860032000F0D6F80F2000F007F800F0B6
:1003F00055F8002010BD0000003C0240F0B587B069
:1004000004460026002700BF002000901E48006818
:1004100040F001001C4908600846006800F0010037
:10042000009000BF00BF01A902A800F089F900F008
:10043000AFF906461548B6FBF0F0471E14481549BB
:10044000086040F2E7311348C16047600021016154
:100450008160816100F054FC054695B90D4800F0BB
:1004600083FC05466DB9192000F042F8102C07D224
:1004700000222146192000F04FF80748046000E0F0
:100480000125284607B0F0BD4438024040420F0025
:1004900000000140D00200200800002008B500BF85
:1004A000002000901148006840F480400F49086027
:1004B0000846006800F48040009000BF00BF00BF05
:1004C00000200090081F006840F08050091F08605D
:1004D0000846006800F08050009000BF00BF002276
:1004E0000F21901E00F018F808BD000044380240AB
:1004F0000146084600280DDB00BF00BF00F01F03C7
:1005000001229A4043099B0003F1E023C3F8002134
:1005100000BF00BF00BF70472DE9F05F80460D4669
:100520001646002700F078FE074639462A4633462D
:1005300001F00700C0F1070ABAF1040F02D94FF029
:10054000040A01E0C0F1070AD14600F1040ABAF139
:10055000070F02D24FF0000A01E0A0F1030AD446CF
:100560004FF0010A0AFA09FAAAF1010A0AEA020A94
:100570000AFA0CFA4FF0010B0BFA0CFBABF1010B72
:100580000BEA030B4AEA0B042146404600F04CFEFE
:10059000BDE8F09F00BF00F00702064B19684FF658
:1005A000FF031940044B0B4343EA0221014B19603E
:1005B00000BF70470CED00E00000FA0570B504467E
:1005C0000D460CB9012070BD5848006800F00700C6
:1005D000A84209D255490D700846006800F007008E
:1005E000A84201D00120EEE7207800F002000228A6
:1005F0001DD1207800F00400042805D14C48006883
:1006000040F4E0504A490860207800F008000828CB
:1006100005D14748006840F46040454908604448B7
:10062000006820F0F000A168084341490860207884
:1006300000F00100A8B36068012807D13C480838E1
:100640000068C0F34040B8B90120BCE760680228E8
:1006500002D06068032807D1354808380068C0F325
:10066000406048B90120AEE7314808380068C0F35F
:10067000400008B90120A6E72D48006820F00300DB
:10068000616808432A490860FFF788FE064609E0CA
:10069000FFF784FE801B41F28831884202D9032093
:1006A00091E707E02248006800F00C006168B0EBB9
:1006B000810FEDD11D48006800F00700A84209D95C
:1006C0001A490D700846006800F00700A84201D0E2
:1006D000012078E7207800F00400042807D11448AE
:1006E000006820F4E050E168084311490860207870
:1006F00000F00800082808D10D48006820F4604088
:10070000216940EAC1000A49086000F051F808492F
:100710000968C1F30311074A515CC84006490860E3
:1007200006480068FFF76AFE00204CE7003C0240E4
:1007300008380240AC21000810000020080000200A
:100740000F2202600D4A126802F0030242600B4A57
:10075000126802F0F0028260084A126802F4E05265
:10076000C260064A126802F46042D2080261044A7A
:10077000126802F007020A60704700000838024061
:10078000003C024001480068704700001000002053
:1007900000B5FFF7F7FF04490968C1F34231034A86
:1007A000515CC84000BD000008380240BC21000870
:1007B0002DE9F047002400250026A14625480068C1
:1007C00000F00C0020B1042805D008283AD105E03B
:1007D000DFF8849039E0DFF8849036E01D48001F90
:1007E000006800F03F041B48001F006800F4800010
:1007F00078B11A481749091F0968C1F38811A0FB8D
:1008000001700146224600233846FFF73BFD0546AE
:100810000EE011480F49091F0968C1F38811A0FBB8
:1008200001700146224600233846FFF72BFD05469E
:100830000848001F0068C0F30140401C4600B5FB9B
:10084000F6F902E0DFF8109000BF00BF4846BDE8AF
:10085000F0870000083802400024F40040787D0151
:10086000F8B504460CB90120F8BD207800F001006D
:10087000002874D0F948006800F00C0004280DD05E
:10088000F648006800F00C00082813D1F348001F58
:10089000006800F48000B0F5800F0BD1EF480838F5
:1008A0000068C0F34040002859D06068002856D145
:1008B0000120D9E700BF6068B0F5803F08D1E74864
:1008C0000838006840F48030E449083908601EE0C8
:1008D0006068B0F5A02F0DD1E0480838006840F4FA
:1008E0008020DE49083908600846006840F48030FE
:1008F00008600CE0D9480838006820F48030D749F7
:10090000083908600846006820F48020086000BFAD
:10091000606890B1FFF742FD054606E0FFF73EFD37
:10092000401B642801D903209EE7CC4808380068A2
:10093000C0F340400028F1D011E0FFF72FFD05463D
:1009400006E0FFF72BFD401B642801D903208BE74D
:10095000C24808380068C0F340400028F1D1207830
:1009600000F0020002285FD1BC48006800F00C00D3
:1009700058B1BA48006800F00C0008281CD1B748EC
:10098000001F006800F48000B0B9B448083800685F
:10099000C0F3400020B1E068012801D0012063E7E6
:1009A000AE480838006820F0F800216940EAC1002C
:1009B000AA490839086037E0E06800B30120A84977
:1009C0000860FFF7EBFC054606E0FFF7E7FC401B7D
:1009D000022801D9032047E7A04808380068C0F37F
:1009E00040000028F1D09D480838006820F0F80049
:1009F000216940EAC10099490839086014E00020E3
:100A000097490860FFF7CAFC054606E0FFF7C6FCF9
:100A1000401B022801D9032026E7904808380068C7
:100A2000C0F340000028F1D1207800F00800082829
:100A30002CD16069A8B101208A490860FFF7AEFC9B
:100A4000054606E0FFF7AAFC401B022801D9032057
:100A50000AE782486C300068C0F340000028F1D0FB
:100A600014E000207F490860FFF798FC054606E087
:100A7000FFF794FC401B022801D90320F4E67748D5
:100A80006C300068C0F340000028F1D1207800F0FD
:100A90000400042870D1002770483830006800F046
:100AA000805090B900BF002000906C48383000683A
:100AB00040F080506949383108600846006800F00D
:100AC0008050009000BF00BF01276748006800F415
:100AD0008070B0B96448006840F480706249086072
:100AE000FFF75CFC054606E0FFF758FC401B0228B8
:100AF00001D90320B8E65C48006800F48070002843
:100B0000F2D000BFA068012808D1544868300068BE
:100B100040F001005149683108601DE0A0680528D7
:100B20000DD14E486830006840F004004B496831F0
:100B300008600846006840F0010008600CE0474883
:100B40006830006820F001004449683108600846B8
:100B5000006820F00400086000BFA068A8B1FFF79B
:100B60001DFC054609E0FFF719FC401B41F28831E6
:100B7000884202D9032077E626E0384868300068CA
:100B8000C0F340000028EED013E0FFF707FC054655
:100B900008E0FFF703FC401B41F28831884201D98D
:100BA000032061E62D4868300068C0F3400000284B
:100BB000EFD1012F07D129483830006820F080504C
:100BC00026493831086000BFA069002845D0234875
:100BD000006800F00C0008285DD0A069022845D10B
:100BE00000201F490866FFF7D9FB054606E0FFF71E
:100BF000D5FB401B022801D9032035E617480838E9
:100C00000068C0F340600028F1D1D4E9070108432F
:100C1000616A40EA81110122A06AC2EB500041EAF8
:100C200000412C20005D41EA00600C49091F08606A
:100C300001200B490866FFF7B1FB054606E0FFF708
:100C4000ADFB401B022801D903200DE603480838FC
:100C50000068C0F340600028F1D049E00838024045
:100C600000004742800E47420070004000202149AA
:100C70000866FFF793FB054606E0FFF78FFB401B76
:100C8000022801D90320EFE51B480068C0F340604B
:100C90000028F2D12CE0A069012800D1E4E5164833
:100CA000001D0668A069012820D006F48001E069D3
:100CB00081421BD106F03F01206A814216D147F6DE
:100CC000C0703040616AB0EB811F0FD106F4403133
:100CD0000122A06AC2EB5000B1EB004F06D106F032
:100CE00070612C20005DB1EB006F01D00120BBE5ED
:100CF0000020B9E5000047420038024070477047C5
:100D000010B504460CB9012010BD94F83D0028B977
:100D1000002084F83C00204600F025F8022084F8EA
:100D20003D00211D206800F005FA012084F84600EE
:100D300000BF84F83E0001213F20015540200155AD
:100D40004120015500BF00BF012084F8420043202C
:100D50000155442001554520015500BF012084F86C
:100D60003D000020D0E77047014691F83D00012882
:100D700001D001207047022081F83D000868C0685A
:100D800040F001000B68D8601A4B086898421BD0ED
:100D90000868B0F1804F17D0174B0868984213D0FD
:100DA000164B086898420FD0154B086898420BD034
:100DB000144B0868984207D0134B0868984203D038
:100DC000124B086898420CD10868806800F007024E
:100DD000062A0CD00868006840F001000B68186013
:100DE00005E00868006840F001000B68186000200A
:100DF000C0E700000000014000040040000800407F
:100E0000000C004000040140004001400018004078
:100E1000704770B504462068C5682068066906F00A
:100E20000200022819D105F00200022815D1401F46
:100E300021680861012020772068806900F00300A4
:100E400018B12046FFF7E4FF05E0204600F097F8D0
:100E5000204600F095F80020207706F004000428D2
:100E600019D105F00400042815D1C0432168086198
:100E7000022020772068806900F4407018B1204675
:100E8000FFF7C6FF05E0204600F079F8204600F0A5
:100E900077F80020207706F00800082819D105F01F
:100EA0000800082815D1C043216808610420207774
:100EB0002068C06900F0030018B12046FFF7A8FFC2
:100EC00005E0204600F05BF8204600F059F80020CD
:100ED000207706F01000102819D105F01000102816
:100EE00015D1C04321680861082020772068C069B7
:100EF00000F4407018B12046FFF78AFF05E0204655
:100F000000F03DF8204600F03BF80020207706F086
:100F1000010048B105F0010030B16FF00100216817
:100F20000861204600F02EF806F08000802809D1E4
:100F300005F08000802805D1C04321680861204663
:100F4000FFF7DCFE06F04000402809D105F0400024
:100F5000402805D1C04321680861204600F01EF8F2
:100F600006F02000202809D105F02000202805D116
:100F7000C043216808612046FFF7C1FE70BD70477D
:100F80007047000010B5044603492068884201D12B
:100F9000FFF70AFA10BD000000000140704700BFD3
:100FA000FEE7000000B587B01C2206496846FFF73F
:100FB0009AF90021684600F07EF90349086007B0FD
:100FC00000BD0000902100080000002008B500BF0F
:100FD000002000901548006840F0040013490860A4
:100FE0000846006800F00400009000BF00BF00BF8A
:100FF000002000900846006840F080000860084625
:10100000006800F08000009000BF00BF00BF00201B
:1010100000900846006840F001000860084600683B
:1010200000F00100009000BF00BF08BD3038024052
:1010300000BFFEE700BFFEE700BF012000F02AF975
:10104000FBE7000010B500BF502080F31188BFF30C
:101050004F8FBFF36F8F00BF00F074FF18B14FF0D8
:1010600080500449086000BF002080F3118800BF51
:1010700010BD000004ED00E000B593B0302107A8DA
:10108000FFF74AF9142102A8FFF746F900BF002034
:1010900001901D48006840F080501B4908600846D8
:1010A000006800F08050019000BF00BF00BF00202A
:1010B00001901648006840F48040144908600846D2
:1010C000006800F48040019000BF00BF022007903C
:1010D00001200A9010200B9000200D9007A8FFF728
:1010E000BFFB08B1FFF757F90F20029000200390D3
:1010F000049005900690002102A8FFF75FFA08B15E
:10110000FFF749F913B000BD4038024000700040BD
:101110000348006840F4700001490860704700000F
:1011200088ED00E010B50248FFF773FE10BD000027
:10113000D002002010B502682B4B98420ED0B0F1BF
:10114000804F0BD0294B984208D0294B984205D0AC
:10115000284B984202D0284B984203D122F07002CB
:101160004B681A43204B984220D0B0F1804F1DD0DD
:101170001E4B98421AD01E4B984217D01D4B9842D6
:1011800014D01D4B984211D01C4B98420ED01C4BD2
:1011900098420BD01B4B984208D01B4B984205D06D
:1011A0001A4B984202D01A4B984203D122F4407253
:1011B000CB681A4322F080034C6943EA04028B682F
:1011C000C3620B688362084B984202D00A4B984274
:1011D00001D10B690363036843F004030360012337
:1011E0004361026010BD00000000014000040040A7
:1011F00000080040000C0040000401400040014095
:10120000004401400048014000180040001C00401C
:101210000020004000BFFEE702480068C0F3022043
:10122000704700000CED00E010B5002804DB0A0751
:10123000130E054A135406E00A07140E034A00F081
:101240000F031B1FD45410BD00E400E018ED00E0B4
:1012500002E008C8121F08C1002AFAD1704770477F
:10126000002001E001C1121F002AFBD17047FFF7E7
:10127000A7F8FFF701FFFFF7A9FEFFF793FE00F0C5
:1012800015F800BFFEE701460020842901D0CA1CE2
:101290001044704770B5044625460DB1294600E05C
:1012A0000121084600F036FC002070BD10B500F0AA
:1012B0005FFC002010BD7FB504460D46606998B103
:1012C000A06988B1B4F90800FFF7DDFF0646D4E94C
:1012D0000510CDE9006102902B462269D4E9001087
:1012E00000F0D2FD039013E0B4F90800FFF7CBFF44
:1012F000064603A8CDE90060238A9AB22B46D4E9BA
:10130000001000F08FFD012802D0002004B070BD55
:101310000398FBE72DE9F04105460E461C48076897
:101320001C480068001D00F0F1FA50B91948006827
:1013300090F82C100120884017490968814316480D
:101340000160681C38B936B112480168091D13489C
:1013500000F026FB1AE07C190E4800684460BC428D
:1013600007D20C480168091D0D48006800F0FEFA1C
:101370000CE008480168091D0A48006800F0F6FA08
:1013800009480068844201D207480460BDE8F08142
:1013900028000020140000202C000020F40300206E
:1013A0001C000020180000204400002010B5044656
:1013B00000F002FB23480068401C224908602248D4
:1013C000006840B9204804600846006801280DD133
:1013D00000F03EF90AE01D48006838B91A48006874
:1013E000C06AE16A884201D817480460184800685A
:1013F000401C1749086094F82C10012088401549BA
:101400000968084313490860E16A01EB8101124A47
:1014100002EB8100211D00F0C3FA00F0F7FA0B483F
:10142000006868B108480068C06AE16A884207D26B
:101430004FF0805009490860BFF34F8FBFF36F8FA3
:1014400010BD000024000020140000203000002007
:10145000400000202C0000201803002004ED00E0D4
:1014600010B516E000F0A8FA0C48C068C468201D4A
:1014700000F04CFA0A480068401E09490860094813
:101480000068401E0749086000F0C0FA204600F0DE
:101490000BF8044800680028E4D110BDE0030020E8
:1014A000240000202000002010B5044694F85100CC
:1014B00030B9206B00F0C8FA204600F0C5FA1AE0F7
:1014C00094F85100012803D1204600F0BDFA12E043
:1014D00094F85100022801D1012000E0002050B909
:1014E00000BF502080F31188BFF34F8FBFF36F8F81
:1014F00000BF00BFFEE710BD30B54FF47053174872
:1015000000F007042CB1C01D20F00700134C041B91
:101510001B1B0246124C22600024114D6C60D01837
:10152000083820F007000F4C206000240D4D2D6876
:101530006C600C4D2D682C601146441A4C60094CAF
:1015400024680C60084D4C682C60084D4C682C6079
:101550004FF00044064D2C6030BD00000804002010
:101560005000002058000020600000205C00002097
:101570006C00002000BFFFF773FF064800680128D9
:10158000F9D94FF0805004490860BFF34F8FBFF383
:101590006F8FF0E71803002004ED00E02DE9FF5FF6
:1015A00081460E469246DDE90E7B109CAAF10100B1
:1015B000216B01EB800828F0070808F0070008B944
:1015C000012000E0002050B900BF502080F31188B6
:1015D000BFF34F8FBFF36F8F00BF00BFFEE786B131
:1015E000002507E0715D04F134004155705D00B9DC
:1015F00002E06D1C102DF5D300BF002143200155E2
:1016000002E0002084F83400072F00D30627E762A9
:1016100067640020A064201D00F0A5F904F1180003
:1016200000F0A1F92461C7F10700A0616462002005
:10163000E06484F8500049464046039A00F050F9AF
:101640002060BBF1000F01D0CBF80040BDE8FF9F48
:1016500010B5002407E004EB84010F4A02EB81007F
:1016600000F074F9641C072CF5D30C4800F06EF9F7
:101670000B4800F06BF90B4800F068F90A4800F0DD
:1016800065F90A4800F062F904480949086004480D
:101690000849086010BD000018030020A4030020C2
:1016A000B8030020CC030020E0030020F403002056
:1016B000180000201C00002010B50146164800E06C
:1016C000006803688B42FBD30246436813448B4295
:1016D00004D143684C682344436001460A464B6882
:1016E00013440468A34211D10C4C03682468A3423C
:1016F00008D04B680468646823444B6003681B6827
:101700000B6005E0054B1B680B6001E003680B6094
:10171000884200D0016010BD500000205800002019
:101720000A490968096809B9012100E0002121B1CD
:101730004FF0FF31064A116006E004490968C968A4
:10174000C868034A41681160704700001800002013
:10175000440000200E480068401C08B9012000E049
:10176000002050B900BF502080F31188BFF34F8F85
:10177000BFF36F8F00BF00BFFEE700BF502080F3B4
:101780001188BFF34F8FBFF36F8F00BF00BFFEE71D
:10179000700000202DE9F04104464FF0000800F0F1
:1017A0003FFA4948006808B9FFF7A6FE47480068B5
:1017B0002040002870D1D4B1083404F00700B0B143
:1017C00004F00700C0F10800044404F0070008B961
:1017D000012000E0002050B900BF502080F31188A4
:1017E000BFF34F8FBFF36F8F00BF00BFFEE7002C2A
:1017F00052D03748006884424ED8364E304605688D
:1018000001E02E462D686868A04202D228680028B0
:10181000F7D12D48006885423ED0306800F10808B5
:10182000286830606868001B102819D92F1907F044
:10183000070008B9012000E0002050B900BF502087
:1018400080F31188BFF34F8FBFF36F8F00BF00BFCE
:10185000FEE76868001B78606C603846FFF72CFF75
:101860001B4968680968081A194908600846006831
:1018700019490968884203D215480068164908606A
:1018800012496868096808436860002028601348A6
:101890000068401C1149086000F0F8FB08F00700E0
:1018A00008B9012000E0002050B900BF502080F3AB
:1018B0001188BFF34F8FBFF36F8F00BF00BFFEE7EC
:1018C0004046BDE8F0810000580000206C00002078
:1018D0005C00002050000020600000206400002018
:1018E000001F4FF080730360001F21F001030360AD
:1018F000001F054B036014380260001F6FF00203E5
:1019000003602038704700005517000801460A6937
:10191000D1E901309860D1E90103586050688842EC
:1019200001D188685060002008611068401E106076
:1019300010687047034B0360034B0B6080231360F8
:10194000704700007C000020D000002000F108015A
:1019500041604FF0FF31816000F10801C160016119
:1019600000210160704700210161704710B50246F7
:101970000B685C1C0CB9106907E002F1080000E07C
:101980004068446824689C42FAD944684C604C68BA
:10199000A160886041600A611468641C146010BD15
:1019A00042684A6093688B609368596091600861EF
:1019B00003685B1C0360704700BF502080F31188F0
:1019C000BFF34F8FBFF36F8F00BF0E480068401CFE
:1019D0000C49086008460068012812D10A480068CE
:1019E000C0B208B9012000E0002050B900BF50206B
:1019F00080F31188BFF34F8FBFF36F8F00BF00BF1D
:101A0000FEE770477000002004ED00E00D4800681C
:101A100050B900BF502080F31188BFF34F8FBFF340
:101A20006F8F00BF00BFFEE706480068401E0549F3
:101A300008600846006820B9002080F3118800BFC4
:101A400000BF70477000002070B506463546002E76
:101A500044D0083D2C46224960680968084008B116
:101A6000012000E0002050B900BF502080F3118811
:101A7000BFF34F8FBFF36F8F00BF00BFFEE720683B
:101A800008B9012000E0002050B900BF502080F3C9
:101A90001188BFF34F8FBFF36F8F00BF00BFFEE70A
:101AA0000F49606809680840C0B12068B0B90C49A6
:101AB000606809688843606000F0B2F809496068AE
:101AC00009680844074908602046FFF7F5FD064805
:101AD0000068401C0449086000F0D8FA70BD00009E
:101AE0006C0000205C0000206800002000204FF007
:101AF000E02108618861064800684FF47A71B0FB04
:101B0000F1F0401E4FF0E021486107200861704766
:101B10001000002070B504460025D4B112480068BA
:101B200008B9012000E0002050B900BF502080F328
:101B30001188BFF34F8FBFF36F8F00BF00BFFEE769
:101B400000F06EF800212046FFF7E4FB00F09EFA5B
:101B500005463DB94FF0805004490860BFF34F8FF0
:101B6000BFF36F8F70BD00004C00002004ED00E05B
:101B700010B586B000200590049003AA04A905A81A
:101B8000FFF7D8FE0022DDE904101346CDE900215D
:101B900002901CA11D48039A00F076F91C490860C8
:101BA0000846006808B1012400E00024012C15D18A
:101BB00000BF502080F31188BFF34F8FBFF36F8FAA
:101BC00000BF4FF0FF301349086001201249086040
:101BD00000201249086000F071F810E0601C08B1A4
:101BE000012000E0002050B900BF502080F3118890
:101BF000BFF34F8FBFF36F8F00BF00BFFEE706B08C
:101C000010BD000049444C45000000007515000857
:101C10004800002044000020300000202800002060
:101C200002480068401C0149086070474C000020D1
:101C30001D48006818B101201C49086032E00020EE
:101C40001A4908601A480068B0FA80F0C0F11F0114
:101C500001EB8100174A52F8200008B1012000E092
:101C6000002050B900BF502080F31188BFF34F8F80
:101C7000BFF36F8F00BF00BFFEE701EB81020D4B8A
:101C800003EB820042685268426000F10802436838
:101C9000934202D14268526842604268D268064B61
:101CA0001A6000BF704700004C0000203800002080
:101CB0002C00002018030020140000201CB55248FE
:101CC00000685249884201D0012000E0002050B94C
:101CD00000BF502080F31188BFF34F8FBFF36F8F89
:101CE00000BF00BFFEE7484800684849491E8842D7
:101CF00001D0012000E0002050B900BF502080F347
:101D00001188BFF34F8FBFF36F8F00BF00BFFEE797
:101D10003F49084600780190FF200A4610700846A7
:101D2000007800909DF8000000F0F0009DF8002081
:101D3000904201D1012000E0002050B900BF5020A6
:101D400080F31188BFF34F8FBFF36F8F00BF00BFC9
:101D5000FEE79DF8000000F050002E4A10700720AA
:101D60002D4A106009E02C480068401E2A4A106085
:101D70009DF800004006000E00909DF8000000F065
:101D800080008028EFD024480068C0F107000428B4
:101D900001D1012000E0002050B900BF502080F3A5
:101DA0001188BFF34F8FBFF36F8F00BF00BFFEE7F7
:101DB000194800680002184A10601046008800F4B4
:101DC000E0601060124A019810700F4820300068DF
:101DD00040F470000C49203108600846006840F06B
:101DE00070400860FFF782FE00200C490860FEF793
:101DF000FBF90B48006840F0404009490860FEF7D5
:101E0000DFF900201CBD000000ED00E071C20F41B1
:101E100000E400E074000020780000207000002042
:101E200034EF00E02DE9FF4F85B080468946174624
:101E3000DDE912ABB800FFF7ADFC064656B1542001
:101E4000FFF7A8FC04460CB1266304E03046FFF718
:101E5000FBFD00E000248CB1002084F85100CDE9A6
:101E600000ABCDE902403A4649464046089BFFF7A1
:101E700095FB2046FFF79AFA012501E04FF0FF3568
:101E8000284609B0BDE8F08F2DE9F04F85B0074630
:101E9000884691469A46DDE90EB6109C0EB10120A7
:101EA00000E0002050B900BF502080F31188BFF33C
:101EB0004F8FBFF36F8F00BF00BFFEE70CB1012053
:101EC00000E0002050B900BF502080F31188BFF31C
:101ED0004F8FBFF36F8F00BF00BFFEE7542003900A
:101EE0000398542801D1012000E0002050B900BF20
:101EF000502080F31188BFF34F8FBFF36F8F00BF67
:101F000000BFFEE700BFB4B1AEB125462C462E633C
:101F1000022085F85100002004A953464A46CDE925
:101F200000B1CDE9025041463846FFF737FB28465D
:101F3000FFF73CFA01E000200490049805B0BDE8EA
:101F4000F08F00002DE9F0414FF000084448006890
:101F500000287CD143480068451C4248056015BBF9
:101F600041480068006808B9012000E0002050B92D
:101F700000BF502080F31188BFF34F8FBFF36F8FE6
:101F800000BF00BFFEE73848076838480068364998
:101F900008603648076036480068401C34490860CD
:101FA000FFF7BEFB00BF3348006885423CD300BF4B
:101FB0002D480068006808B9012000E0002020B129
:101FC0004FF0FF302B4908602DE027480068C068BB
:101FD000C4686668B54202D22648066023E0201D28
:101FE000FFF794FCA06A18B104F11800FFF78EFC0B
:101FF00094F82C10012088401F49096808431E49A5
:102000000860E16A01EB81011C4A02EB8100211D9D
:10201000FFF7C6FC1A49E06A0968C96A8842C7D353
:102020004FF00108C4E700BF15480068C06A00EB24
:102030008000124951F82000012801D94FF0010811
:102040001048006808B14FF0010805E0FFE70E48AE
:102050000068401C0C4908604046BDE8F081000063
:102060004C00002028000020180000201C00002048
:102070003C000020440000202C0000201803002019
:1020800014000020380000203400002070B5002427
:1020900000263648006850B900BF502080F31188F0
:1020A000BFF34F8FBFF36F8F00BF00BFFEE7FFF797
:1020B00083FC2E480068401E2C49086008460068D2
:1020C00000284FD12A48006800284BD024E0294836
:1020D000C068C46804F11800FFF718FC201DFFF762
:1020E00015FC94F82C100120884023490968084306
:1020F00021490860E16A01EB8101204A02EB81007D
:10210000211DFFF74DFC1E49E06A0968C96A884233
:1021100002D301201B4908601648006808B9012055
:1021200000E000200028D2D00CB1FFF7F9FA1648E1
:10213000056865B100BFFFF705FF10B10120114927
:1021400008606D1E002DF6D100200F4908600D4873
:10215000006838B1012630070C490860BFF34F8F83
:10216000BFF36F8FFFF752FC304670BD4C0000206C
:1021700024000020CC0300202C00002018030020A5
:1021800014000020380000203400002004ED00E09E
:10219000C421000839100008000000000000000001
:1021A00080000000000000000000000000000000AF
:1021B00000000000010203040607080900000000F7
:1021C0000102030464656661756C745461736B008D
:1021D000F0210008000000207C00000050120008E0
:1021E0006C2200087C0000208C4300006012000874
:1021F00000000000000000001000000001000000CE
:102200000024F400000000000000000000000000B6
:1022100000000000000000000000000000000000BE
:1022200000000000000000000000000000000000AE
:10223000000000000000000000000000000000009E
:10224000000000000000000000000000000000008E
:10225000000000000000000000000000000000007E
:0C226000AAAAAAAA0000000000000000CA
:040000050800018965
:00000001FF
